:08000000803102288731ED2F49
:100AFA008631B72685317D2D803102286400800138
:100B0A000131890B842D00340630FB001330FA00C2
:100B1A00AE30890B8E2DFA0B8E2DFB0B8E2DFF30EE
:100B2A0022008E0008000F3022008E000630FB00E3
:100B3A001330FA00AE30890BA02DFA0BA02DFB0B57
:100B4A00A02DF03022008E000630FB001330FA0090
:100B5A00AE30890BAE2DFA0BAE2DFB0BAE2D080075
:100B6A00AA3022008E000630FB001330FA00AE30A5
:100B7A00890BBD2DFA0BBD2DFB0BBD2D5530220067
:100B8A008E000630FB001330FA00AE30890BCB2DF5
:100B9A00FA0BCB2DFB0BCB2D0800FF3022008E0069
:100BAA000630FB001330FA00AE30890BDA2DFA0B4F
:100BBA00DA2DFB0BDA2D0F3022008E000630FB00F7
:100BCA001330FA00AE30890BE82DFA0BE82DFB0B37
:100BDA00E82D0800F03022008E000630FB001330AA
:100BEA00FA00AE30890BF72DFA0BF72DFB0BF72D18
:100BFA00FF3022008E000630FB001330FA00AE30C0
:100C0A00890B052EFA0B052EFB0B052E0F30220041
:100C1A008E000630FB001330FA00AE30890B132E1B
:100C2A00FA0B132EFB0B132E0800813022008E00C4
:100C3A000630FB001330FA00AE30890B222EFA0B75
:100C4A00222EFB0B222EC33022008E000630FB0020
:100C5A001330FA00AE30890B302EFA0B302EFB0B14
:100C6A00302EDB3022008E000630FB001330FA00F3
:100C7A00AE30890B3E2EFA0B3E2EFB0B3E2E0800A1
:100C8A00813022008E000630FB001330FA00AE30AD
:100C9A00890B4D2EFA0B4D2EFB0B4D2EC330220025
:100CAA008E000630FB001330FA00AE30890B5B2E43
:100CBA00FA0B5B2EFB0B5B2EE73022008E00063010
:100CCA00FB001330FA00AE30890B692EFA0B692E3D
:100CDA00FB0B692EFF3022008E000630FB0013301A
:100CEA00FA00AE30890B772EFA0B772EFB0B772E94
:100CFA000800FF3022008E000630FB001330FA0095
:100D0A00AE30890B862EFA0B862EFB0B862EE73029
:100D1A0022008E000630FB001330FA00AE30890B39
:100D2A00942EFA0B942EFB0B942EC33022008E00C5
:100D3A000630FB001330FA00AE30890BA22EFA0BF4
:100D4A00A22EFB0BA22E813022008E000630FB0061
:100D5A001330FA00AE30890BB02EFA0BB02EFB0B13
:100D6A00B02E080021008E0123008D01FF302100E2
:100D7A008D0020000D08F039FC00FD017C08AB0055
:100D8A007D08AC00EC2E8531982586310E2F8531F1
:100D9A00B52586310E2F8631452686310E2F8631AE
:100DAA007E2686310E2F8531D22586310E2F85314A
:100DBA00EF2586310E2F86311A2686310E2F87317E
:100DCA001A2786310E2F8531892586310E2F2C0858
:100DDA00003A0319F12E0E2F2B08013A0319C82ED7
:100DEA00033A0319CC2E013A0319D02E073A0319F4
:100DFA00D42E013A0319D82E033A0319DC2E013AEC
:100E0A000319E02E0F3A0319E42E013A0319E82ECA
:100E1A000E2F0330FD008A30FC005630890B132F49
:100E2A00FC0B132FFD0B132F0800013022008E003C
:100E3A000630FB001330FA00AE30890B222FFA0B72
:100E4A00222FFB0B222F023022008E000630FB00DD
:100E5A001330FA00AE30890B302FFA0B302FFB0B10
:100E6A00302F043022008E000630FB001330FA00C7
:100E7A00AE30890B3E2FFA0B3E2FFB0B3E2F08306C
:100E8A0022008E000630FB001330FA00AE30890BC8
:100E9A004C2FFA0B4C2FFB0B4C2F103022008E00DC
:100EAA000630FB001330FA00AE30890B5A2FFA0BCA
:100EBA005A2FFB0B5A2F203022008E000630FB00DF
:100ECA001330FA00AE30890B682FFA0B682FFB0B30
:100EDA00682F403022008E000630FB001330FA00E3
:100EEA00AE30890B762FFA0B762FFB0B762F8030DC
:100EFA0022008E000630FB001330FA00AE30890B58
:100F0A00842FFA0B842FFB0B842F403022008E0093
:100F1A000630FB001330FA00AE30890B922FFA0B21
:100F2A00922FFB0B922F203022008E000630FB00FE
:100F3A001330FA00AE30890BA02FFA0BA02FFB0B4F
:100F4A00A02F103022008E000630FB001330FA006A
:100F5A00AE30890BAE2FFA0BAE2FFB0BAE2F08303B
:100F6A0022008E000630FB001330FA00AE30890BE7
:100F7A00BC2FFA0BBC2FFB0BBC2F043022008E00B7
:100F8A000630FB001330FA00AE30890BCA2FFA0B79
:100F9A00CA2FFB0BCA2F023022008E000630FB003C
:100FAA001330FA00AE30890BD82FFA0BD82FFB0B6F
:100FBA00D82F013022008E000630FB001330FA00D1
:100FCA00AE30890BE62FFA0BE62FFB0BE62F080053
:100FDA0070308400003085000A30853183258731DE
:100FEA0020308400003085000B308531832587311D
:0A0FFA00200085317D2D0134003404
:020000040001F9
:04000E00E23FFF3E90
:00000001FF
